{
  "contractName": "Partner",
  "abi": [
    {
      "inputs": [],
      "name": "Address",
      "outputs": [
        {
          "internalType": "address",
          "name": "",
          "type": "address"
        }
      ],
      "stateMutability": "view",
      "type": "function",
      "constant": true
    },
    {
      "inputs": [],
      "name": "buyer",
      "outputs": [
        {
          "internalType": "address",
          "name": "",
          "type": "address"
        }
      ],
      "stateMutability": "view",
      "type": "function",
      "constant": true
    },
    {
      "inputs": [],
      "name": "sample",
      "outputs": [
        {
          "internalType": "uint256",
          "name": "",
          "type": "uint256"
        }
      ],
      "stateMutability": "view",
      "type": "function",
      "constant": true
    },
    {
      "inputs": [],
      "name": "sender",
      "outputs": [
        {
          "internalType": "address",
          "name": "",
          "type": "address"
        }
      ],
      "stateMutability": "view",
      "type": "function",
      "constant": true
    },
    {
      "inputs": [],
      "name": "value",
      "outputs": [
        {
          "internalType": "uint256",
          "name": "",
          "type": "uint256"
        }
      ],
      "stateMutability": "view",
      "type": "function",
      "constant": true
    },
    {
      "inputs": [
        {
          "internalType": "uint256",
          "name": "sample_",
          "type": "uint256"
        }
      ],
      "name": "buyCover",
      "outputs": [],
      "stateMutability": "nonpayable",
      "type": "function"
    }
  ],
  "bytecode": "0x608060405234801561001057600080fd5b5061026a806100206000396000f3fe608060405234801561001057600080fd5b50600436106100625760003560e01c80633aeaccf5146100675780633fa4f2451461009b57806367e404ce146100b95780637150d8ae146100ed578063c9482a5d14610121578063e11eb7821461013f575b600080fd5b61006f61016d565b604051808273ffffffffffffffffffffffffffffffffffffffff16815260200191505060405180910390f35b6100a3610193565b6040518082815260200191505060405180910390f35b6100c1610199565b604051808273ffffffffffffffffffffffffffffffffffffffff16815260200191505060405180910390f35b6100f56101bd565b604051808273ffffffffffffffffffffffffffffffffffffffff16815260200191505060405180910390f35b6101296101e3565b6040518082815260200191505060405180910390f35b61016b6004803603602081101561015557600080fd5b81019080803590602001909291905050506101e9565b005b600260009054906101000a900473ffffffffffffffffffffffffffffffffffffffff1681565b60015481565b60008054906101000a900473ffffffffffffffffffffffffffffffffffffffff1681565b600360009054906101000a900473ffffffffffffffffffffffffffffffffffffffff1681565b60045481565b8060048190555033600360006101000a81548173ffffffffffffffffffffffffffffffffffffffff021916908373ffffffffffffffffffffffffffffffffffffffff1602179055505056fea2646970667358221220b8f0211b3333f020451ec27e30de99909292b361296e469dca5731b0f749910664736f6c63430007060033",
  "immutableReferences": {},
  "source": "// SPDX-License-Identifier: MIT\r\npragma solidity >=0.4.22 <0.9.0;\r\n\r\n// Partner Contract will have the final buyCover function\r\ncontract Partner {\r\n    address public sender;\r\n    uint256 public value;\r\n    address public Address;\r\n\r\n    address public buyer;\r\n    uint256 public sample;\r\n\r\n    function buyCover(uint256 sample_) public {\r\n        sample = sample_;\r\n        buyer = msg.sender;\r\n    }\r\n}\r\n",
  "sourcePath": "C:/Users/shelly/Desktop/Blockchain/Ethereum/Delegate Calls/contracts/Partner.sol",
  "compiler": {
    "name": "solc",
    "version": "0.7.6+commit.7338295f.Emscripten.clang"
  },
  "schemaVersion": "3.4.1",
  "updatedAt": "2021-08-09T14:44:18.966Z",
  "networkType": "ethereum",
  "devdoc": {
    "kind": "dev",
    "methods": {},
    "version": 1
  },
  "userdoc": {
    "kind": "user",
    "methods": {},
    "version": 1
  }
}