{
  "contractName": "Proxy",
  "abi": [
    {
      "inputs": [],
      "name": "Address",
      "outputs": [
        {
          "internalType": "address",
          "name": "",
          "type": "address"
        }
      ],
      "stateMutability": "view",
      "type": "function",
      "constant": true
    },
    {
      "inputs": [],
      "name": "sender",
      "outputs": [
        {
          "internalType": "address",
          "name": "",
          "type": "address"
        }
      ],
      "stateMutability": "view",
      "type": "function",
      "constant": true
    },
    {
      "inputs": [],
      "name": "value",
      "outputs": [
        {
          "internalType": "uint256",
          "name": "",
          "type": "uint256"
        }
      ],
      "stateMutability": "view",
      "type": "function",
      "constant": true
    },
    {
      "inputs": [],
      "name": "setValues",
      "outputs": [],
      "stateMutability": "payable",
      "type": "function",
      "payable": true
    }
  ],
  "bytecode": "0x608060405234801561001057600080fd5b5061020b806100206000396000f3fe60806040526004361061003f5760003560e01c80633aeaccf5146100445780633fa4f2451461008557806367e404ce146100b0578063800509d5146100f1575b600080fd5b34801561005057600080fd5b506100596100fb565b604051808273ffffffffffffffffffffffffffffffffffffffff16815260200191505060405180910390f35b34801561009157600080fd5b5061009a610121565b6040518082815260200191505060405180910390f35b3480156100bc57600080fd5b506100c5610127565b604051808273ffffffffffffffffffffffffffffffffffffffff16815260200191505060405180910390f35b6100f961014b565b005b600260009054906101000a900473ffffffffffffffffffffffffffffffffffffffff1681565b60015481565b60008054906101000a900473ffffffffffffffffffffffffffffffffffffffff1681565b336000806101000a81548173ffffffffffffffffffffffffffffffffffffffff021916908373ffffffffffffffffffffffffffffffffffffffff1602179055503460018190555030600260006101000a81548173ffffffffffffffffffffffffffffffffffffffff021916908373ffffffffffffffffffffffffffffffffffffffff16021790555056fea2646970667358221220053efa744bdfeb7c7191b5c96c7c9a5be122f308eb6f426e6b911f13d4ac749b64736f6c63430007060033",
  "immutableReferences": {},
  "source": "// SPDX-License-Identifier: MIT\r\npragma solidity >=0.4.22 <0.9.0;\r\n\r\n// Proxy Contract which will interact with Partner contract\r\ncontract Proxy {\r\n    // NOTE: storage layout must be the same as contract A\r\n\r\n    address public sender;\r\n    uint256 public value;\r\n\r\n    address public Address;\r\n\r\n    function setValues() public payable {\r\n        sender = msg.sender;\r\n        value = msg.value;\r\n\r\n        Address = address(this);\r\n    }\r\n}\r\n",
  "sourcePath": "C:/Users/shelly/Desktop/Blockchain/Ethereum/Delegate Calls/contracts/Proxy.sol",
  "compiler": {
    "name": "solc",
    "version": "0.7.6+commit.7338295f.Emscripten.clang"
  },
  "schemaVersion": "3.4.1",
  "updatedAt": "2021-08-09T13:30:15.582Z",
  "networkType": "ethereum",
  "devdoc": {
    "kind": "dev",
    "methods": {},
    "version": 1
  },
  "userdoc": {
    "kind": "user",
    "methods": {},
    "version": 1
  }
}